:020000040000FA
:020000000528D1
:040002000034003492
:06000A000317831601300C
:100010008800003089000313831675308F000313A6
:100020008316061406150130850081130313831609
:10003000FF3092000313831295010C3097008C104F
:1000400012158C1C21288C10031383168813081397
:1000500088120711031383128813081388120711DB
:100060000313831600309F0003138312C1309F00D7
:100070009F144D209F183A28031383121E089500E1
:100080000313831206191628061847284A284C30ED
:1000900097003828CC30970038280830A200640038
:0A00A000A20B4F285328640008004B
:02400E00F4209C
:02401000FF3E71
:00000001FF
