:020000040000FA
:020000000528D1
:06000A000317831601300C
:100010008800003089000313831675308F000313A6
:100020008316061406150130850081130313831609
:10003000FF3092000313831295010C3097008C104F
:1000400012158C1C21288C10031383168813081397
:10005000881207110313831600309F0003138312C5
:10006000C1309F009F1447209F1834280313831228
:100070001E08950003138312061916280618412836
:1000800044284C3097003228CC3097003228083072
:0E009000A2006400A20B49284D28640008005D
:02400E00F4209C
:02401000FF3E71
:00000001FF
