:020000040000FA
:020000000528D1
:06000A0003178316081421
:1000100089010313831675308F0006140615051425
:1000200000309F008813081388120711FF309200D8
:1000300003138312950197018C10121501309F0054
:10004000870188019F143E209F1824281E089500D0
:10005000061D3728061C32282D2803138312CC30A6
:1000600097002228031383124C3097002228031391
:100070008312950197018701880122280830A10089
:0C0080006400A10B402844286400080024
:02400E00F4209C
:02401000FF3E71
:00000001FF
